:100000000C9486000C9439070C9466070C94AE008F
:100010000C94AE000C94AE000C94AE000C94AE00A8
:100020000C94AE000C94AE000C94AE000C94AE0098
:100030000C94AE000C94AE000C94AE000C94AE0088
:100040000C9493070C94AE000C947C0A0C94B80AA0
:100050000C94AE000C94AE000C94AE000C94AE0068
:100060000C94AE000C94AE005620312E306231203C
:100070004648454D6475696E6F202D20636F6D7025
:10008000696C6564206174204D61792032362032BC
:100090003031342031373A33323A32310052003F76
:1000A00020557365206F6E65206F6620562069733A
:1000B000205220710000000007000201000003042C
:1000C00006000000000000000001020408102040AB
:1000D0008001020408102001020408102004040416
:1000E00004040404040202020202020303030303E1
:1000F0000300000000250028002B00000000002461
:100100000027002A00005C06CA0B680611241FBEE7
:10011000CFEFD8E0DEBFCDBF11E0A0E0B1E0E0E17D
:10012000FAE202C005900D92AA35B107D9F712E0A4
:10013000AAE5B1E001C01D92A13CB107E1F711E0D1
:10014000CAE0D1E004C02297FE010E94B50FC6307C
:10015000D107C9F70E94470E0C94FB140C940000C1
:1001600041E050E06EE674E080E00C94090740E85E
:1001700055E260E070E086E192E00E94F30A0E949E
:10018000B00060E082E00E949A0661E08BE00C948F
:100190009A0680E00C942907CF93DF9300D0CDB767
:1001A000DEB78091BD029091BE02009711F481EC00
:1001B00092E09E012F5F3F4F281B390BC9010F9022
:1001C0000F90DF91CF91089580916101882339F0DC
:1001D00081E020915E0130915F01232B09F480E0E2
:1001E00008951092610168E471E08AE591E00C9451
:1001F000C90C0E94E400882341F06AE571E086E1C1
:1002000092E00E940C090C94F10008952F923F9205
:100210004F925F926F927F928F929F92AF92BF9216
:10022000CF92DF92EF92FF920F931F93CF93DF93C2
:10023000CDB7DEB7EF970FB6F894DEBF0FBECDBFD8
:100240008834910510F480E05AC120916901309101
:100250006A012056324221393140A8F7FE01319619
:10026000ADE6B1E021E030E011E015C04D915C91C8
:100270001197BA01695077406F38714010F41082BD
:1002800006C0495D5E404F385140E8F610832F5F4D
:100290003F4F31961496A901440F551F481759072F
:1002A00028F3888589AB9F819AABAE81ABABED819A
:1002B000ECAB0C810DAB2B812EAB3A813FAB49816E
:1002C00048AF598559AF6A856AAF8B858BAF9C85DE
:1002D0009CAFA88CBF88DE88ED88FC880B891A89C2
:1002E000798968895F857E84CD8468A04F8C3E8C37
:1002F0002D8CAC8DADAFEB8DEEAF2A8D2FAF498D30
:100300002CA188E0289F900111248BA1A4E08A9F52
:10031000C0011124822B99A1892B9AA0990C982AAB
:10032000FE013496CE018496812C2081A8E02A9F7C
:1003300090011124DF0113975C90522ADF0111977D
:100340002C91A4E02A9F90011124522ADF011297D8
:100350002C91220F2529820E3496E817F90729F7E8
:10036000882D8F7089116FCF3A2D330F330F330FD4
:1003700020E09B2D990F990F80E0822B932B8C29E5
:100380003D2D330F20E0822B932B3E2D20E0822B3E
:10039000932BE0E8FE9E90011124822B932BA0E486
:1003A0000A9F90011124822B932BE0E21E9F900163
:1003B0001124822B932B00E1709F90011124822B3A
:1003C000932B28E0629FB0011124862B972B64E0C9
:1003D000569F90011124822B932B272D30E0220F62
:1003E000331F822B932B64E0880F991F6A95E1F7E6
:1003F00074E0959587957A95E1F79C012D503E4FD5
:100400002F3A344008F01FCFE0E86E9E30011124EF
:1004100000E4409E200111246428642A40E2349EB6
:1004200090011124622A50E1259E100111246228B6
:10043000ADAD68E0A69F90011124622A0EADE4E004
:100440000E9F90011124622A2FAD220F2629322FF0
:100450003D59333608F0F7CE2C591F922F939F93B6
:100460008F931F922CAD2F938AAD880F3BAD832BBA
:100470001F928F931F9249AD4F932AA9220F6BA908
:1004800054E0659FC0011124282B89A9282BECA9D1
:10049000A8E0EA9FC0011124282B3DA900E1309F6C
:1004A000C0011124282B5EA940E2549FC0011124F1
:1004B000282BAFA960E4A69FC0011124282B08AD0A
:1004C000E0E80E9FC0011124282B1F922F9386E095
:1004D00091E09F938F938E010A5D1F4F1F930F939F
:1004E0000E941312B8018AE591E00E94C90C81E0D4
:1004F000809361010FB6F894DEBF0FBECDBFEF96BB
:100500000FB6F894DEBF0FBECDBFDF91CF911F9124
:100510000F91FF90EF90DF90CF90BF90AF909F90A2
:100520008F907F906F905F904F903F902F900895A5
:100530002F923F924F925F926F927F928F929F92F3
:10054000AF92BF92CF92DF92EF92FF920F931F93E1
:10055000CF93DF93CDB7DEB760970FB6F894DEBFC9
:100560000FBECDBF8C0161E271E08AE591E00E948F
:10057000C90C0133110509F0C2C080916901909145
:100580006A016FE170E00E947D0F8B014B01A12C8D
:10059000B12C9B01ACE3B0E00E94710F0E94800E71
:1005A0002AE037ED43E25CE30E940E0F0E94540EF6
:1005B0006B017C019801A3E0B0E00E94710F8B01F8
:1005C0009C010C191D092E093F0909831A832B83ED
:1005D0003C83A7019601260F371F481F591F298703
:1005E0003A874B875C873BE6232E31E0332E80E051
:1005F00090E0DC01240135014C185D086E087F088D
:10060000B701A601480D591D6A1D7B1D4D875E87E8
:100610006F87788B60C0F101408151814A01A12C24
:10062000B12C481459046A047B0428F5ED84FE8437
:100630000F8518898E149F04A006B106E0F422816C
:100640003381A90160E070E04D835E836F8378871A
:10065000E980FA800B811C81E416F506060717076E
:1006600050F409851A852B853C8540175107620790
:10067000730708F429C029813A814B815C812815D0
:1006800039054A055B05D8F549855A856B857C8512
:1006900084169506A606B70690F5F10142815381AE
:1006A0004A01A12CB12C481459046A047B0438F582
:1006B000ED84FE840F8518898E149F04A006B10670
:1006C000F0F40196A11DB11D880F991FAA1FBB1F31
:1006D00004E0200E311C1BEC211611E0310609F05C
:1006E0009ACFAC01BD0176956795579547958AE5F8
:1006F00091E00E94220D81E08093610101C080E0C1
:1007000060960FB6F894DEBF0FBECDBFDF91CF91DC
:100710001F910F91FF90EF90DF90CF90BF90AF901F
:100720009F908F907F906F905F904F903F902F9011
:1007300008950F931F93CF93DF93CDB7DEB7AF9795
:100740000FB6F894DEBF0FBECDBF8834910510F40C
:1007500080E0B9C08091690190916A018E52924205
:10076000853F9140A8F7EDE6F1E080E090E061E0A0
:1007700020813181A9014F505640433F514058F4E8
:10078000DC01B595A79521E030E02C0F3D1FA20FAD
:10079000B31F1C920FC02D5A3D40233F3140C0F67D
:1007A000DC01B595A79521E030E02C0F3D1FA20F8D
:1007B000B31F6C933496029688349105C9F62B8149
:1007C000220F8A8134E0839FC0011124282B8C8161
:1007D000282B898148E0849FC0011124282B2530D3
:1007E00009F0B6CFFE01379687E090E060E021E0A7
:1007F00030E04191442339F0A901082E01C0440F93
:100800000A94EAF7640F01978130910591F7BD854D
:1008100081E0B827AF85AA0F8889A82BA62B0E8563
:10082000FE0172962AE030E080E090E041E050E086
:100830006191662349F0BA01022E02C0660F771F4C
:100840000A94E2F7860F971F2150310988F729890A
:1008500021119051FE017D9627E030E010E041E04B
:1008600050E06191662339F0BA01022E01C0660F93
:100870000A94EAF7160F2150310998F71F921F9337
:100880009F938F931F920F931F921F921F92BF935C
:100890001F92AF9384E291E09F938F938E010B5D43
:1008A0001F4F1F930F930E941312B8018AE591E026
:1008B0000E94C90C81E0809361010FB6F894DEBFFD
:1008C0000FBECDBF81E0AF960FB6F894DEBF0FBE6E
:1008D000CDBFDF91CF911F910F910895CF92DF92FD
:1008E000EF92FF920E94DD076B017C018091FF0176
:1008F000909100029601281B390BC9013093040224
:1009000020930302893833E1930708F43FC0209114
:10091000690130916A01A901485C510948175907DA
:1009200088F528533F4F8217930760F52091050201
:10093000309106022F5F3F4F30930602209305024D
:10094000809107029091080201979093080280938A
:10095000070222303105B1F40E94060181110EC058
:1009600080910702909108020E949802811106C0AE
:1009700080910702909108020E949903109206024A
:10098000109205021092080210920702809107024D
:10099000909108028B34910540F010920802109259
:1009A00007021092060210920502809107029091B0
:1009B0000802FC01EE0FFF1FE759FE4F20910302D2
:1009C0003091040231832083019690930802809332
:1009D0000702C092FF01D0920002E0920102F09261
:1009E0000202FF90EF90DF90CF900895EF92FF9278
:1009F0000F931F93CF93DF938C017B010E94C9005B
:100A000061E08BE00E94D206CEE5D1E00C9FC001F0
:100A10000D9F900D1C9F900D11240E94070860E00F
:100A20008BE00E94D206EC9EC001ED9E900DFC9ED4
:100A3000900D11240E940708DF91CF911F910F9113
:100A4000FF90EF900C94B0006FE170E081E090E0D7
:100A50000C94F60463E070E081E090E00E94F604FC
:100A600061E070E083E090E00C94F60461E070E0F7
:100A700083E090E00E94F60461E070E083E090E0A3
:100A80000C94F60463E070E081E090E00E94F604CC
:100A900063E070E081E090E00C94F604EF92FF9246
:100AA0000F931F93CF93DF937C0103E010E016C0F8
:100AB000213351F0263429F0203341F40E944205BD
:100AC00005C00E942A0502C00E9436052991211105
:100AD000EFCF0E9424050150110919F0CE2DDF2D12
:100AE000F5CFDF91CF911F910F91FF90EF90089577
:100AF000FF920F931F93CF93DF93CDB7DEB7649729
:100B00000FB6F894DEBF0FBECDBF8C016FE371E06E
:100B10000E94660D882319F068E670E06DC062E2FD
:100B200071E0C8010E94660D882381F06DE970E0D4
:100B300086E192E00E9484080E94CC004AE050E0E6
:100B4000BC0186E192E00E94C7095AC061E471E0ED
:100B5000CE0101960E948B0CBE016F5F7F4FC801D2
:100B60000E94AC0DF82ECE0101960E941A0CFF20B7
:100B700041F161E08DE00E94D20642E050E0B80110
:100B8000CE010E960E943B0E20E030E04DE050E09A
:100B9000BE016F5F7F4FCE010E960E94CC0DCE013D
:100BA0000E960E941A0CCE0101960E944E0560E03E
:100BB0008DE00E94D206B80186E192E00E940C0905
:100BC0001FC064E471E0C8010E94660D882359F0DB
:100BD0000E94C90086E192E00E94340A86E192E018
:100BE0000E94730B0DC067E471E0C8010E94660D9E
:100BF000882331F06FE970E086E192E00E94F80806
:100C000068E471E082E691E00E94C90C64960FB638
:100C1000F894DEBF0FBECDBFDF91CF911F910F9132
:100C2000FF9008951F93CF93DF93CDB7DEB72E9734
:100C30000FB6F894DEBF0FBECDBF86E192E00E94F2
:100C4000E109892B79F186E192E00E94100A182FC0
:100C50008A3021F08D3011F081110FC062E671E011
:100C6000CE0108960E94BF0CCE0108960E9478051E
:100C7000CE0108960E941A0CE0CF62E671E0CE0128
:100C800001960E94BF0C612FCE0101960E94550D66
:100C9000BC0182E691E00E94A80CCE0101960E9460
:100CA0001A0CCBCF2E960FB6F894DEBF0FBECDBF79
:100CB000DF91CF911F91089568E471E082E691E0A1
:100CC0000E948B0C68E471E08AE591E00C948B0C37
:100CD0008AE591E00E941A0C82E691E00C941A0CCD
:100CE000833069F028F48130A1F0823011F514C00E
:100CF0008630B1F08730C1F08430D9F404C08091DF
:100D000080008F7703C0809180008F7D809380006A
:100D1000089584B58F7702C084B58F7D84BD089512
:100D20008091B0008F7703C08091B0008F7D809359
:100D3000B0000895CF93DF9390E0FC01E753FF4F9D
:100D40004491FC01E352FF4F8491882341F190E0EC
:100D5000880F991FFC01E550FF4F25913491D9016F
:100D60008F509F4FFC0185919491C82FD92F9FB729
:100D7000F8948C91611106C0409584238C938881EE
:100D8000842308C0623041F4242F209582238C9361
:100D90008881842B888302C0842B8C939FBFDF9132
:100DA000CF9108950F931F93CF93DF931F92CDB7E9
:100DB000DEB7282F30E0F901EB54FF4F8491F901A1
:100DC000E753FF4F1491F901E352FF4F04910023C1
:100DD000D1F0882321F069830E9470066981E02F99
:100DE000F0E0EE0FFF1FEF50FF4F85919491DC0173
:100DF0009FB7F8948C91611103C01095812301C0B5
:100E0000812B8C939FBF0F90DF91CF911F910F91FA
:100E100008958230E8F4E82FF0E0EE0FFF1FE75F5F
:100E2000FD4F71836083813041F0809169008C7F38
:100E3000842B80936900E89A089580916900440F9B
:100E4000551F440F551F837F842B80936900E99AB7
:100E50000895823068F4813011F0E89801C0E99873
:100E6000E82FF0E0EE0FFF1FE75FFD4F11821082C9
:100E700008951F920F920FB60F9211242F933F9354
:100E80004F935F936F937F938F939F93AF93BF9392
:100E9000EF93FF938091090290910A02892B29F028
:100EA000E0910902F0910A020995FF91EF91BF913B
:100EB000AF919F918F917F916F915F914F913F91F2
:100EC0002F910F900FBE0F901F9018951F920F92A9
:100ED0000FB60F9211242F933F934F935F936F930D
:100EE0007F938F939F93AF93BF93EF93FF938091E3
:100EF0000B0290910C02892B29F0E0910B02F091EA
:100F00000C020995FF91EF91BF91AF919F918F9145
:100F10007F916F915F914F913F912F910F900FBEF5
:100F20000F901F9018951F920F920FB60F921124D9
:100F30002F933F938F939F93AF93BF9380910D0215
:100F400090910E02A0910F02B09110023091150203
:100F5000232F2D5F2D3720F40196A11DB11D05C053
:100F6000232F2A570296A11DB11D209315028093AD
:100F70000D0290930E02A0930F02B0931002809185
:100F8000110290911202A0911302B09114020196E5
:100F9000A11DB11D8093110290931202A093130220
:100FA000B0931402BF91AF919F918F913F912F9178
:100FB0000F900FBE0F901F9018950F931F939FB720
:100FC000F8940091110210911202209113023091B5
:100FD000140286B5A89B06C08F3F21F00F5F1F4FFC
:100FE0002F4F3F4F9FBF322F212F102F0027080F69
:100FF000111D211D311D42E0000F111F221F331F43
:101000004A95D1F7B801C9011F910F910895019731
:1010100039F0880F991F880F991F02970197F1F7F0
:101020000895789484B5826084BD84B5816084BD60
:1010300085B5826085BD85B5816085BDEEE6F0E051
:10104000808181608083E1E8F0E0108280818260AD
:101050008083808181608083E0E8F0E0808181602E
:101060008083E1EBF0E0808184608083E0EBF0E05E
:10107000808181608083EAE7F0E080818460808302
:1010800080818260808380818160808380818068AC
:1010900080831092C1000895CF92DF92EF92FF9269
:1010A0000F931F93CF93DF936C01EB017A01E60E50
:1010B000F71E00E010E00BC06991D601ED91FC91A4
:1010C0000190F081E02DC6010995080F191FCE157A
:1010D000DF0591F7C801DF91CF911F910F91FF902C
:1010E000EF90DF90CF900895DB010D900020E9F79D
:1010F000AD0141505109461B570BDC01ED91FC91AC
:101100000280F381E02D0994EF92FF920F931F93D9
:10111000CF93DF937C01EB0100E010E0FE0121960C
:101120006491662351F0F701A081B181ED91FC91AA
:10113000C7010995080F191FF1CFC801DF91CF91A1
:101140001F910F91FF90EF900895AF92BF92CF92B1
:10115000DF92EF92FF920F931F93CF93DF937C0167
:101160006B0100E010E0C0E0D0E011C0D701ED91CC
:10117000FC91A080B180B801C6010E94BB0D682F10
:10118000C701F5010995C80FD91F0F5F1F4FD60181
:1011900014968D919C9115970817190738F3CE0175
:1011A000DF91CF911F910F91FF90EF90DF90CF9043
:1011B000BF90AF900895DC01ED91FC910190F0811A
:1011C000E02D09940F931F93CF93DF93EC016DE013
:1011D0000E94DB088C016AE0CE010E94DB089C01C2
:1011E000200F311FC901DF91CF911F910F910895F9
:1011F0000F931F93CF93DF93EC010E9484088C011F
:10120000CE010E94E2089C01200F311FC901DF912D
:10121000CF911F910F9108950F931F93CF93DF9359
:10122000EC010E94A5088C01CE010E94E2089C01FD
:10123000200F311FC901DF91CF911F910F910895A8
:101240004F925F926F927F929F92AF92BF92CF9296
:10125000DF92EF92FF920F931F93CF93DF93CDB75F
:10126000DEB7A1970FB6F894DEBF0FBECDBF5C010D
:101270006A017B01922E19A281E0821710F08AE0A8
:10128000982E8E010F5D1F4F492C512C612C712C13
:10129000C701B601A30192010E94910F8C2D929E6D
:1012A00080191124015011098A3014F4805D01C0A5
:1012B000895CF801808369017A01C114D104E104D9
:1012C000F10431F7B801C5010E947408A1960FB668
:1012D000F894DEBF0FBECDBFDF91CF911F910F916C
:1012E000FF90EF90DF90CF90BF90AF909F907F9056
:1012F0006F905F904F900895CF92DF92EF92FF92A0
:101300000F931F93CF93DF93EC016A017B012115AB
:10131000310579F4E881F9810190F081E02D642FA5
:10132000DF91CF911F910F91FF90EF90DF90CF90C1
:1013300009942A30310519F477FD0EC02AE0B7016F
:10134000A601CE01DF91CF911F910F91FF90EF90F9
:10135000DF90CF900C9420096DE20E94DB088C0195
:1013600044275527BA014C195D096E097F092AE007
:10137000CE010E942009080F191FC801DF91CF91EB
:101380001F910F91FF90EF90DF90CF9008950F93F2
:101390001F93CF93DF93EC019A01AB01662757FDB2
:1013A0006095762F0E947C098C01CE010E94E20894
:1013B0009801280F391FC901DF91CF911F910F911B
:1013C0000895FC0184859585FC01E05CFF4F208138
:1013D0003181FC01EE5BFF4F80819181281B390B2D
:1013E0002F733327C9010895FC0184859585FC017D
:1013F000E05CFF4F40815181FC01EE5BFF4F20819B
:1014000031814217530741F00190F081E02DE80F40
:10141000F91F208130E002C02FEF3FEFC90108958E
:10142000FC0184859585FC01E05CFF4F4081518182
:10143000FC01EE5BFF4F208131814217530781F0A1
:10144000A081B181A80FB91F8C91208131812F5FBC
:101450003F4F2F73332731832083282F30E002C082
:101460002FEF3FEFC9010895FC0186859785FC01A8
:10147000E05CFF4FDC01AE5BBF4F408151812D919D
:101480003C91119742175307C1F70895CF93DF930B
:10149000FC0186859785DC01A05CBF4F2D913C91B6
:1014A00011972F5F3F4F2F733327EC01CE5BDF4F38
:1014B0004881598124173507D9F30D90BC91A02D8F
:1014C000A80FB91F6C93A685B785A05CBF4F119676
:1014D0003C932E93A689B7892C9181E090E0058CEE
:1014E00002C0880F991F0A94E2F7282B2C9381E001
:1014F00090E0DF91CF9108951F920F920FB60F9257
:1015000011242F933F934F938F939F93EF93FF93C8
:101510004091C6008091B9029091BA0201968F73F2
:1015200099272091BB023091BC028217930759F092
:10153000E091B902F091BA02E758FD4F40839093D1
:10154000BA028093B902FF91EF919F918F914F91D1
:101550003F912F910F900FBE0F901F90189586E12D
:1015600092E00E94E109892B11F00C941206089573
:101570001F920F920FB60F9211242F933F938F93C8
:101580009F93EF93FF9320917502309176028091A3
:101590007702909178022817390731F48091C100C1
:1015A0008F7D8093C10014C0E0917702F0917802A2
:1015B000EB5CFD4F2081809177029091780201963B
:1015C0008F73992790937802809377022093C600B7
:1015D000FF91EF919F918F913F912F910F900FBEAF
:1015E0000F901F901895CF92DF92EF92FF92CF93BA
:1015F000DF93EC016A017B01411581EE580761051B
:101600007105F9F0EC89FD8981E090E00E8C02C053
:10161000880F991F0A94E2F7808360E079E08DE3F8
:1016200090E0A70196010E94910F215031094109D4
:1016300051095695479537952795211580E138072B
:1016400098F0EC89FD89108260E874E88EE190E002
:10165000A70196010E94910F2150310941095109BA
:101660005695479537952795E889F9893083EA8912
:10167000FB892083EE89FF89408181E090E09C0115
:101680000A8C02C0220F331F0A94E2F7422B4083D8
:10169000EE89FF8940819C010B8C02C0220F331F11
:1016A0000A94E2F7422B4083EE89FF8940819C0136
:1016B0000C8C02C0220F331F0A94E2F7422B4083A6
:1016C000EE89FF8920810D8C02C0880F991F0A9432
:1016D000E2F7809582238083DF91CF91FF90EF9096
:1016E000DF90CF900895CF93DF93FC018685978597
:1016F000DC01A05CBF4FEC01CE5BDF4F4D915C91F4
:1017000011972881398142175307C1F7A689B789F4
:101710004C9181E090E09C01028C02C0220F331FAB
:101720000A94E2F7209524232C93A689B7894C913B
:101730009C01038C02C0220F331F0A94E2F720950C
:1017400024232C93A689B7894C919C01048C02C058
:10175000220F331F0A94E2F7209524232C93A689A5
:10176000B7892C91058C02C0880F991F0A94E2F763
:10177000809582238C9384859585FC01EE5BFF4FD9
:1017800020813181FC01E05CFF4F31832083DF91B8
:10179000CF910895109219021092180288EE93E0EA
:1017A000A0E0B0E080931A0290931B02A0931C0269
:1017B000B0931D028DE491E090931702809316027E
:1017C00089E792E0909323028093220285E392E0DE
:1017D000909325028093240285EC90E09093270259
:1017E0008093260284EC90E0909329028093280253
:1017F00080EC90E090932B0280932A0281EC90E0A1
:1018000090932D0280932C0286EC90E090932F020F
:1018100080932E0284E08093300283E08093310233
:1018200087E08093320285E08093330281E08093E9
:1018300034020895FC01808191810C945410CF935F
:10184000DF93EC0188819981009711F00E94541078
:10185000198218821D821C821B821A82DF91CF910D
:1018600008950F931F93CF93DF93EC018B016F5F6C
:101870007F4F888199810E94F010009731F0998301
:1018800088831B830A8381E001C080E0DF91CF91D0
:101890001F910F910895CF93DF93EC018881998177
:1018A000892B31F08A819B818617970708F00CC03D
:1018B000CE010E94310C882349F08C819D81892BB7
:1018C00019F4E881F981108281E001C080E0DF91A4
:1018D000CF910895EF92FF920F931F93CF93DF93D1
:1018E000EC017B018A01BA010E944B0C811104C0FA
:1018F000CE010E941F0C07C01D830C83B701888195
:1019000099810E94CA11CE01DF91CF911F910F9151
:10191000FF90EF900895DC0111961C921E92139691
:101920001C921E92129715961C921E921497169650
:101930001C926115710559F0DB010D900020E9F74B
:10194000AD0141505109461B570B0C946A0C089588
:10195000CF93DF93EC01FB018617970761F060815D
:1019600071816115710529F0448155810E946A0CCD
:1019700002C00E941F0CCE01DF91CF910895FC019F
:1019800011821082138212821582148216820C94A4
:10199000A80CCF93DF93D82FC92F6115710561F083
:1019A000DB010D900020E9F7AD0141505109461BC4
:1019B000570B0E946A0C02C00E941F0C8D2F9C2F97
:1019C000DF91CF910895EF92FF920F931F93CF93E2
:1019D000DF93EC017B010C811D816115710511F410
:1019E00080E016C04115510591F0040F151FB80194
:1019F0000E944B0C8823A1F3288139818C819D8121
:101A0000B701820F931F0E94CA111D830C8381E0CE
:101A1000DF91CF911F910F91FF90EF900895CF9399
:101A2000DF9300D0CDB7DEB769831A8241E050E082
:101A3000BE016F5F7F4F0E94E30C0F900F90DF910C
:101A4000CF910895EF92FF920F931F93CF93DF935F
:101A5000CDB7DEB72B970FB6F894DEBF0FBECDBF64
:101A60007C01CB01BA012AE030E08E010F5F1F4FED
:101A7000A8010E94EE11F80101900020E9F7AF01E2
:101A800041505109401B510BB801C7010E94E30CA2
:101A90002B960FB6F894DEBF0FBECDBFDF91CF916E
:101AA0001F910F91FF90EF900895CF93DF93D82F60
:101AB000C92F0E940F0D811104C08D2F9C2F0E94F1
:101AC0001F0C8D2F9C2FDF91CF910895DC01149670
:101AD0002D913C911597232B39F481E06115710507
:101AE00011F0FB0108C00895DC01ED91FC91611536
:101AF000710529F481E09081992349F007C0CF0155
:101B00000E94C1119C0181E0232B09F080E008951F
:101B1000FA01DB0114964D915C911597DC01149646
:101B20002D913C911597241B350B2E173F0790F0F4
:101B30008D919C91009771F0DB016D917C91611505
:101B4000710541F08E0F9F1F0E94D1119C0181E011
:101B5000232B09F080E00895FC0144815581FB01AD
:101B6000248135814217530720F040E050E00C9467
:101B7000880D80E00895FC01248135816217730788
:101B800048F480819181009729F0FC01E60FF71F4E
:101B90008081089580E008950F931F93CF93DF9382
:101BA000EB0141155105E9F02097D9F0FC010481C2
:101BB00015812017310708F013C041505109021B4D
:101BC000130B4017510708F48A01FC0160817181F1
:101BD000620F731FA801CE010E94DF11C00FD11F39
:101BE0001882DF91CF911F910F910895BF92CF92EC
:101BF000DF92EF92FF920F931F93CF93DF936C01CD
:101C00007B01EA0189012417350720F48D2FE901B2
:101C1000042F182F68E471E0C6010E948B0CD701D5
:101C200014968D919C9115978C179D07C8F080177D
:101C3000910708F48C01D701ED91FC911197E00F09
:101C4000F11FB08010826D917C916C0F7D1FC601D9
:101C50000E94C90CD701ED91FC91E00FF11FB082F9
:101C6000C601DF91CF911F910F91FF90EF90DF9010
:101C7000CF90BF900895CF93DF93EC01FB012481B7
:101C800035810E94F60DCE01DF91CF9108950E941B
:101C900011080E94B700CFEADAE00E94F90020970D
:101CA000E1F30E94AF0AF9CF98D088F09F5790F0E7
:101CB000B92F9927B751A0F0D1F0660F771F881F71
:101CC000991F1AF0BA95C9F712C0B13081F09FD0B0
:101CD000B1E008959CC0672F782F8827B85F39F04E
:101CE000B93FCCF3869577956795B395D9F73EF4D0
:101CF00090958095709561957F4F8F4F9F4F089578
:101D0000E89409C097FB3EF4909580957095619595
:101D10007F4F8F4F9F4F9923A9F0F92F96E9BB274B
:101D20009395F695879577956795B795F111F8CFC7
:101D3000FAF4BB0F11F460FF1BC06F5F7F4F8F4F32
:101D40009F4F16C0882311F096E911C0772321F028
:101D50009EE8872F762F05C0662371F096E8862FC0
:101D600070E060E02AF09A95660F771F881FDAF717
:101D7000880F9695879597F9089597F99F6780E85A
:101D800070E060E008959FEF80EC089500240A94CD
:101D90001616170618060906089500240A94121646
:101DA0001306140605060895092E0394000C11F479
:101DB000882352F0BB0F40F4BF2B11F460FF04C026
:101DC0006F5F7F4F8F4F9F4F089557FD9058440F7F
:101DD000551F59F05F3F71F04795880F97FB991F8A
:101DE00061F09F3F79F08795089512161306140647
:101DF000551FF2CF4695F1DF08C0161617061806D4
:101E0000991FF1CF86957105610508940895E894AE
:101E1000BB2766277727CB0197F908950BD0C4CF4E
:101E2000B5DF28F0BADF18F0952309F0A6CFABCFC5
:101E30001124EECFCADFA0F3959FD1F3950F50E0A8
:101E4000551F629FF001729FBB27F00DB11D639F6C
:101E5000AA27F00DB11DAA1F649F6627B00DA11D12
:101E6000661F829F2227B00DA11D621F739FB00DB8
:101E7000A11D621F839FA00D611D221F749F332728
:101E8000A00D611D231F849F600D211D822F762FC1
:101E90006A2F11249F5750408AF0E1F088234AF0BE
:101EA000EE0FFF1FBB1F661F771F881F915050400A
:101EB000A9F79E3F510570F060CFAACF5F3FECF3CA
:101EC000983EDCF3869577956795B795F795E795F6
:101ED0009F5FC1F7FE2B880F911D9695879597F907
:101EE0000895A29FB001B39FC001A39F01D0B29FEC
:101EF000700D811D1124911D0895AA1BBB1B51E17A
:101F000007C0AA1FBB1FA617B70710F0A61BB70B69
:101F1000881F991F5A95A9F780959095BC01CD010E
:101F20000895A1E21A2EAA1BBB1BFD010DC0AA1F1A
:101F3000BB1FEE1FFF1FA217B307E407F50720F032
:101F4000A21BB30BE40BF50B661F771F881F991FAD
:101F50001A9469F760957095809590959B01AC01F6
:101F6000BD01CF010895EE0FFF1F0590F491E02D04
:101F700009940F931F93CF93DF938230910510F450
:101F800082E090E0E091BF02F091C00220E030E0FA
:101F9000C0E0D0E023C04081518148175907A8F024
:101FA0004817590761F482819381209719F09B8328
:101FB0008A832EC09093C0028093BF0229C021154E
:101FC000310529F04217530710F0A90102C0BE01E4
:101FD000DF0102811381EF019A01F8013097D9F6F0
:101FE0002115310509F1281B390B2430310590F4F6
:101FF00012968D919C9113976115710521F0FB014B
:102000009383828304C09093C0028093BF02FD013A
:10201000329644C0FD01E20FF31F81939193225049
:1020200031092D933C933AC02091BD023091BE02FC
:10203000232B41F420910201309103013093BE0221
:102040002093BD022091000130910101211531053D
:1020500041F42DB73EB74091040150910501241B76
:10206000350BE091BD02F091BE02E217F307A0F438
:102070002E1B3F0B2817390778F0AC014E5F5F4FDE
:102080002417350748F04E0F5F1F5093BE02409350
:10209000BD028193919302C0E0E0F0E0CF01DF91B7
:1020A000CF911F910F910895EF92FF920F931F937D
:1020B000CF93DF93009709F48EC0DC01129713963B
:1020C0001C921E921297E090BF02F090C002E114A1
:1020D000F10489F42D913C911197280F391F8091BB
:1020E000BD029091BE028217930789F5B093BE029C
:1020F000A093BD0270C0E70120E030E001C0EA011A
:10210000CA17DB0738F44A815B819E0141155105EE
:10211000B1F722C0AC0142505109FA01D383C28306
:1021200000811181BC01600F711F6C177D0761F484
:1021300068817981600F711F6E5F7F4F718360834B
:102140006A817B81738362832115310529F4B09301
:10215000C002A093BF023FC0F901B383A283E9018B
:1021600049915991C40FD51FAC17BD0771F4DC011B
:102170009E918E91840F951F029691838083129673
:102180008D919C91139793838283A0E0B0E002C06D
:10219000D7017C01F701828193810097C9F7C701BC
:1021A000029620813181820F931F2091BD023091D0
:1021B000BE022817390779F4109729F41092C0024B
:1021C0001092BF0204C013961C921E921297F092B6
:1021D000BE02E092BD02CDB7DEB7E6E00C94EC148F
:1021E000A0E0B0E0E6EFF0E10C94CA14EC01009737
:1021F00029F4CB010E94B90FEC01B4C0DC01A60F99
:10220000B71FFC013297AE17BF0718F4C0E0D0E04B
:10221000A9C00081118106171707B0F0053011051C
:1022200008F4A0C0C80104978617970708F49AC05D
:1022300002501109061B170B0D931D9371836083C8
:10224000CD010E9454108EC06B01C01AD10A7C01CE
:10225000E00EF11EE091BF02F091C00220E030E0FC
:1022600080E090E048C0EE15FF05D1F580809180B8
:10227000540142E0A40EB11CAC14BD0488F17401F9
:10228000EC18FD08670122E0C20ED11C9E0122500D
:10229000310945E0C416D10478F042815381139688
:1022A0005C934E9312971196FC92EE92F901718312
:1022B00060833A2F2B2F09C00E5F1F4F080D191D89
:1022C000D9010D931C9332812381009721F0FC01E9
:1022D0003283238347C03093BF022093C00242C0A1
:1022E000808191812817390708F49C01528143812C
:1022F000CF01E52FF42F309709F0B5CF8091BD02C3
:102300009091BE028E159F05F1F426173707D8F479
:102310008091000190910101009741F48DB79EB723
:102320002091040130910501821B930BA817B90776
:1023300008F06CCFB093BE02A093BD02FE013297AD
:10234000718360830FC0CB010E94B90F7C0100979D
:1023500009F45CCFA801BE010E94B811CE010E9411
:102360005410E701CE01CDB7DEB7ECE00C94E614D3
:10237000FB01DC0102C001900D9241505040D8F7A2
:102380000895FB01DC018D91019080190110D9F3B2
:10239000990B0895FB01DC0101900D920020E1F7FB
:1023A0000895FB01DC014150504030F08D910190C7
:1023B000801919F40020B9F7881B990B0895FB01C7
:1023C000DC014150504048F001900D920020C9F7C7
:1023D00001C01D9241505040E0F70895FA01CF939B
:1023E000FF93EF932230CCF02532BCF4C22F2C2F78
:1023F000332744275527FF93EF930E94910FEF91C6
:10240000FF91605D6A330CF0695D6193B901CA01A7
:10241000605070408040904051F710828F919F91A2
:10242000CF910C942A14A0E1B0E0E9E1F2E10C9420
:10243000D2140F89188D86E08C831A8309838FEF5D
:102440009FE79E838D83AE01455E5F4F588B4F871C
:10245000698D7A8DCE0101960E943712EF81F88541
:10246000E00FF11F10826096E4E00C94EE14ACE0F3
:10247000B0E0EDE3F2E10C94C4147C016B018A013D
:10248000FC0117821682838181FFC7C1882483944F
:10249000912C8C0E9D1EF7019381F60193FD859181
:1024A00093FF81916F01882309F4B3C1853239F418
:1024B00093FD859193FF81916F01853229F4B701D6
:1024C00090E00E943A14E7CF712C312C20E02032AA
:1024D000A8F48B3261F028F4803251F0833271F429
:1024E0000BC08D3239F0803349F4216028C022605E
:1024F000246025C0286023C0206121C027FD27C09B
:10250000382F30533A3078F426FF06C0FAE07F9E29
:10251000300D1124732E13C08AE0389E300D112423
:10252000332E20620CC08E3221F426FD72C120644D
:1025300006C08C3611F4206802C0883641F4F601DA
:1025400093FD859193FF81916F018111C0CF982FE9
:102550009554933018F09052933028F40C5F1F4F2D
:10256000FFE3F9830DC0833631F0833771F0833593
:1025700009F05EC023C0F801808189830E5F1F4F80
:1025800066246394712C540115C02801F2E04F0EAB
:10259000511CF801A080B18026FF03C0672D70E0B8
:1025A00002C06FEF7FEFC5012C870E941F143C0112
:1025B00082012C856FE7262E222218C02801F2E026
:1025C0004F0E511CF801A080B18026FF03C0672D7B
:1025D00070E002C06FEF7FEFC5012C870E941414DA
:1025E0003C012C8550E8252E222A820123FC1CC0A8
:1025F00006C0B70180E290E00E943A143A94832D1D
:1026000090E068167906A8F30FC0F50127FC8591C4
:1026100027FE81915F01B70190E00E943A143110CA
:102620003A94F1E06F1A71086114710471F7EEC009
:10263000843611F0893641F5F80127FF07C0608123
:102640007181828193810C5F1F4F08C0608171810D
:10265000882777FD8095982F0E5F1F4F4FE6642ED9
:10266000622297FF09C090958095709561957F4F84
:102670008F4F9F4FF0E86F2A2AE030E0A4010E94BC
:102680006614A82EA81844C0853731F43FEEB32E47
:10269000B2222AE030E024C099EFB92EB2228F3660
:1026A000B9F020F4883509F0B4C00DC0803721F0AE
:1026B000883709F0AEC002C020E1B22AB4FE0BC0D8
:1026C00084E0B82A08C024FF09C0E6E0BE2A06C09C
:1026D00028E030E005C020E130E002C020E132E037
:1026E000F801B7FE07C060817181828193810C5F20
:1026F0001F4F06C06081718180E090E00E5F1F4F28
:10270000A4010E946614A82EA8188FE7682E6B20DB
:1027100066FE0BC0362D3E7FA71450F464FE0AC03F
:1027200062FC08C0362D3E7E05C0BA2C362D03C093
:10273000BA2C01C0B72C34FF0DC0FE01EA0DF11D0B
:102740008081803311F4397E09C032FF06C0B39412
:10275000B39404C0832F867809F0B39433FD14C07A
:1027600030FF0FC07A2CB31460F4730C7B18B32CB9
:1027700008C0B70180E290E03C870E943A14B3940D
:102780003C85B314B0F304C0B31410F43B1801C07B
:10279000312C34FF12C0B70180E390E03C870E94E7
:1027A0003A143C8532FF1EC031FF03C088E590E03B
:1027B00002C088E790E0B7010CC0832F867891F0C3
:1027C00031FD02C080E201C08BE237FD8DE2B7012E
:1027D00090E00E943A1406C0B70180E390E00E94A6
:1027E0003A147A94A714C0F3AA94F401EA0DF11DE7
:1027F000B701808190E00E943A14A110F5CF06C085
:10280000B70180E290E00E943A143A943110F8CF78
:1028100042CEF7012681378102C02FEF3FEFC90179
:102820002C96E2E10C94E014FC010590615070409C
:102830000110D8F7809590958E0F9F1F0895FC0189
:102840006150704001900110D8F7809590958E0FDF
:102850009F1F0895DC01FC01672F71917723E1F739
:10286000329704C07C916D9370836291AE17BF075D
:10287000C8F308950F931F93CF93DF938C01EB015F
:102880008B8181FD03C00FEF1FEF1AC082FF0DC0C7
:102890002E813F818C819D812817390764F4E8815E
:1028A000F9810193F983E88306C0E885F985802FD3
:1028B0000995892B41F78E819F8101969F838E8395
:1028C000C801DF91CF911F910F910895FA01AA27B6
:1028D000283051F1203181F1E8946F936E7F6E5F63
:1028E0007F4F8F4F9F4FAF4FB1E03ED0B4E03CD011
:1028F000670F781F891F9A1FA11D680F791F8A1FF4
:10290000911DA11D6A0F711D811D911DA11D20D05A
:1029100009F468943F912AE0269F11243019305D14
:102920003193DEF6CF010895462F4770405D419305
:10293000B3E00FD0C9F7F6CF462F4F70405D4A3352
:1029400018F0495D31FD4052419302D0A9F7EACF1A
:10295000B4E0A6959795879577956795BA95C9F749
:1029600000976105710508959B01AC010A2E06943C
:102970005795479537952795BA95C9F7620F731FF5
:10298000841F951FA01D08952F923F924F925F9232
:102990006F927F928F929F92AF92BF92CF92DF926F
:1029A000EF92FF920F931F93CF93DF93CDB7DEB7D4
:1029B000CA1BDB0B0FB6F894DEBF0FBECDBF099468
:1029C0002A88398848885F846E847D848C849B84BF
:1029D000AA84B984C884DF80EE80FD800C811B81CD
:1029E000AA81B981CE0FD11D0FB6F894DEBF0FBEFC
:1029F000CDBFED01089511E0CAE0D1E004C0FE01B1
:102A00000E94B50F2296CC30D107C9F7F894FFCFBA
:102A10000000C10220004B2530325825303164259A
:102A200030316425303164252B30346425303264F4
:102A3000004952004B253032782530316425303141
:102A40006425303164252B303464253032640056DF
:102A5000006973005851003F0000000000460A4C16
:0A2A600008E109100AF409340A0025
:00000001FF
